{
  "contractName": "MyLottery",
  "abi": [
    {
      "inputs": [],
      "stateMutability": "nonpayable",
      "type": "constructor"
    },
    {
      "anonymous": false,
      "inputs": [
        {
          "indexed": false,
          "internalType": "uint256",
          "name": "idDraw",
          "type": "uint256"
        },
        {
          "indexed": false,
          "internalType": "address",
          "name": "winnerAddress",
          "type": "address"
        },
        {
          "indexed": false,
          "internalType": "uint256",
          "name": "sizePrizePool",
          "type": "uint256"
        }
      ],
      "name": "OnDrawWinner",
      "type": "event"
    },
    {
      "anonymous": false,
      "inputs": [
        {
          "indexed": false,
          "internalType": "uint256",
          "name": "idDraw",
          "type": "uint256"
        },
        {
          "indexed": false,
          "internalType": "address",
          "name": "participantAddress",
          "type": "address"
        }
      ],
      "name": "OnTicketBought",
      "type": "event"
    },
    {
      "inputs": [],
      "name": "idCurrentDraw",
      "outputs": [
        {
          "internalType": "uint256",
          "name": "",
          "type": "uint256"
        }
      ],
      "stateMutability": "view",
      "type": "function",
      "constant": true
    },
    {
      "inputs": [],
      "name": "priceTicket",
      "outputs": [
        {
          "internalType": "uint256",
          "name": "",
          "type": "uint256"
        }
      ],
      "stateMutability": "view",
      "type": "function",
      "constant": true
    },
    {
      "inputs": [],
      "name": "prizePool",
      "outputs": [
        {
          "internalType": "uint256",
          "name": "",
          "type": "uint256"
        }
      ],
      "stateMutability": "view",
      "type": "function",
      "constant": true
    },
    {
      "inputs": [],
      "name": "owner",
      "outputs": [
        {
          "internalType": "address",
          "name": "",
          "type": "address"
        }
      ],
      "stateMutability": "view",
      "type": "function",
      "constant": true
    },
    {
      "inputs": [
        {
          "internalType": "uint256",
          "name": "idDraw",
          "type": "uint256"
        }
      ],
      "name": "getWinner",
      "outputs": [
        {
          "internalType": "address",
          "name": "",
          "type": "address"
        }
      ],
      "stateMutability": "view",
      "type": "function",
      "constant": true
    },
    {
      "inputs": [],
      "name": "buyTicket",
      "outputs": [
        {
          "internalType": "uint256",
          "name": "",
          "type": "uint256"
        }
      ],
      "stateMutability": "payable",
      "type": "function",
      "payable": true
    },
    {
      "inputs": [
        {
          "internalType": "uint256",
          "name": "sizeRange",
          "type": "uint256"
        }
      ],
      "name": "random",
      "outputs": [
        {
          "internalType": "uint256",
          "name": "",
          "type": "uint256"
        }
      ],
      "stateMutability": "view",
      "type": "function",
      "constant": true
    },
    {
      "inputs": [],
      "name": "drawWinner",
      "outputs": [],
      "stateMutability": "nonpayable",
      "type": "function"
    },
    {
      "inputs": [],
      "name": "getNbParticipants",
      "outputs": [
        {
          "internalType": "uint256",
          "name": "",
          "type": "uint256"
        }
      ],
      "stateMutability": "view",
      "type": "function",
      "constant": true
    }
  ],
  "bytecode": "0x6080604052600060045534801561001557600080fd5b5033600260006101000a81548173ffffffffffffffffffffffffffffffffffffffff021916908373ffffffffffffffffffffffffffffffffffffffff160217905550670de0b6b3a7640000600581905550610bcb806100756000396000f3fe6080604052600436106100865760003560e01c80638da5cb5b116100595780638da5cb5b14610149578063b2185bb114610174578063b863bd371461018b578063edca914c146101c8578063fdc3633e146101e657610086565b80634129b2c91461008b5780635d8963ef146100c857806364c16534146100f3578063719ce73e1461011e575b600080fd5b34801561009757600080fd5b506100b260048036038101906100ad91906106f4565b610211565b6040516100bf9190610899565b60405180910390f35b3480156100d457600080fd5b506100dd610291565b6040516100ea9190610914565b60405180910390f35b3480156100ff57600080fd5b50610108610297565b6040516101159190610914565b60405180910390f35b34801561012a57600080fd5b5061013361029d565b6040516101409190610914565b60405180910390f35b34801561015557600080fd5b5061015e6102a3565b60405161016b9190610899565b60405180910390f35b34801561018057600080fd5b506101896102cd565b005b34801561019757600080fd5b506101b260048036038101906101ad91906106f4565b6104ee565b6040516101bf9190610914565b60405180910390f35b6101d0610533565b6040516101dd9190610914565b60405180910390f35b3480156101f257600080fd5b506101fb610635565b6040516102089190610914565b60405180910390f35b60006004548210610257576040517f08c379a000000000000000000000000000000000000000000000000000000000815260040161024e906108b4565b60405180910390fd5b60008083815260200190815260200160002060009054906101000a900473ffffffffffffffffffffffffffffffffffffffff169050919050565b60045481565b60055481565b60035481565b6000600260009054906101000a900473ffffffffffffffffffffffffffffffffffffffff16905090565b3373ffffffffffffffffffffffffffffffffffffffff166102ec6102a3565b73ffffffffffffffffffffffffffffffffffffffff1614610342576040517f08c379a0000000000000000000000000000000000000000000000000000000008152600401610339906108f4565b60405180910390fd5b60006103526001805490506104ee565b9050600060018281548110610390577f4e487b7100000000000000000000000000000000000000000000000000000000600052603260045260246000fd5b9060005260206000200160009054906101000a900473ffffffffffffffffffffffffffffffffffffffff169050600182815481106103f7577f4e487b7100000000000000000000000000000000000000000000000000000000600052603260045260246000fd5b9060005260206000200160009054906101000a900473ffffffffffffffffffffffffffffffffffffffff16600080600454815260200190815260200160002060006101000a81548173ffffffffffffffffffffffffffffffffffffffff021916908373ffffffffffffffffffffffffffffffffffffffff16021790555061047d81610642565b7f76dec47bee4b792b5a3611ffff4de3c9cdf3d34b02018b088818e27a84c9b7e7600454826003546040516104b493929190610958565b60405180910390a1600160006104ca91906106a1565b6000600381905550600460008154809291906104e590610a9c565b91905055505050565b600080444260405160200161050492919061086d565b6040516020818303038152906040528051906020012060001c9050828161052b9190610aef565b915050919050565b60006005543414610579576040517f08c379a0000000000000000000000000000000000000000000000000000000008152600401610570906108d4565b60405180910390fd5b6005546003600082825461058d91906109a0565b925050819055506001339080600181540180825580915050600190039060005260206000200160009091909190916101000a81548173ffffffffffffffffffffffffffffffffffffffff021916908373ffffffffffffffffffffffffffffffffffffffff1602179055507f7a6e58ece997c0fd69385045f6eb5b73cdcd79c324129b3252327b25022925bd6004543360405161062a92919061092f565b60405180910390a190565b6000600180549050905090565b8073ffffffffffffffffffffffffffffffffffffffff166108fc670de0b6b3a764000060035461067291906109f6565b9081150290604051600060405180830381858888f1935050505015801561069d573d6000803e3d6000fd5b5050565b50805460008255906000526020600020908101906106bf91906106c2565b50565b5b808211156106db5760008160009055506001016106c3565b5090565b6000813590506106ee81610b7e565b92915050565b60006020828403121561070657600080fd5b6000610714848285016106df565b91505092915050565b61072681610a66565b82525050565b61073581610a2a565b82525050565b6000610748601f8361098f565b91507f54686973206472617720686173206e6f74206265656e20646f6e6520796574006000830152602082019050919050565b600061078860288361098f565b91507f4d73672056616c756520697320646966666572656e742066726f6d207469636b60008301527f65742070726963650000000000000000000000000000000000000000000000006020830152604082019050919050565b60006107ee60228361098f565b91507f4d794c6f74746572793a2063616c6c6572206973206e6f7420746865206f776e60008301527f65720000000000000000000000000000000000000000000000000000000000006020830152604082019050919050565b61085081610a5c565b82525050565b61086761086282610a5c565b610ae5565b82525050565b60006108798285610856565b6020820191506108898284610856565b6020820191508190509392505050565b60006020820190506108ae600083018461072c565b92915050565b600060208201905081810360008301526108cd8161073b565b9050919050565b600060208201905081810360008301526108ed8161077b565b9050919050565b6000602082019050818103600083015261090d816107e1565b9050919050565b60006020820190506109296000830184610847565b92915050565b60006040820190506109446000830185610847565b610951602083018461072c565b9392505050565b600060608201905061096d6000830186610847565b61097a602083018561071d565b6109876040830184610847565b949350505050565b600082825260208201905092915050565b60006109ab82610a5c565b91506109b683610a5c565b9250827fffffffffffffffffffffffffffffffffffffffffffffffffffffffffffffffff038211156109eb576109ea610b20565b5b828201905092915050565b6000610a0182610a5c565b9150610a0c83610a5c565b925082821015610a1f57610a1e610b20565b5b828203905092915050565b6000610a3582610a3c565b9050919050565b600073ffffffffffffffffffffffffffffffffffffffff82169050919050565b6000819050919050565b6000610a7182610a78565b9050919050565b6000610a8382610a8a565b9050919050565b6000610a9582610a3c565b9050919050565b6000610aa782610a5c565b91507fffffffffffffffffffffffffffffffffffffffffffffffffffffffffffffffff821415610ada57610ad9610b20565b5b600182019050919050565b6000819050919050565b6000610afa82610a5c565b9150610b0583610a5c565b925082610b1557610b14610b4f565b5b828206905092915050565b7f4e487b7100000000000000000000000000000000000000000000000000000000600052601160045260246000fd5b7f4e487b7100000000000000000000000000000000000000000000000000000000600052601260045260246000fd5b610b8781610a5c565b8114610b9257600080fd5b5056fea264697066735822122092f1452c6093b0f952aa5498bebe88940d50f288173bb2f43625fa8101e6dba664736f6c63430008000033",
  "immutableReferences": {},
  "source": "// SPDX-License-Identifier: MIT\r\npragma solidity ^0.8.0;\r\n\r\ncontract MyLottery {\r\n    mapping(uint => address) private _drawWinners;\r\n\r\n    address[] private _currentDrawParticipants;\r\n\r\n    address private _owner;\r\n\r\n    uint public prizePool;\r\n\r\n\r\n    uint public idCurrentDraw = 0;\r\n    uint public priceTicket;\r\n\r\n    \r\n\r\n    constructor () { \r\n        _owner = msg.sender;\r\n        priceTicket = 1 ether; \r\n    }\r\n\r\n\r\n    function owner() public view returns (address){\r\n        return _owner;\r\n\r\n    }\r\n\r\n\r\n    modifier onlyOwner() {\r\n        require(owner() == msg.sender, \"MyLottery: caller is not the owner\");\r\n        _;\r\n    }\r\n\r\n\r\n    function getWinner(uint idDraw) public view returns (address) {\r\n        require(idDraw < idCurrentDraw, \"This draw has not been done yet\");\r\n        return _drawWinners[idDraw];\r\n    }\r\n\r\n\r\n    event OnTicketBought(uint idDraw, address participantAddress);\r\n\r\n    function buyTicket() public payable returns (uint) {\r\n        require(msg.value == priceTicket, \"Msg Value is different from ticket price\");\r\n        \r\n        prizePool += priceTicket;\r\n        _currentDrawParticipants.push(msg.sender);\r\n\r\n        emit OnTicketBought(idCurrentDraw, msg.sender);\r\n    }\r\n\r\n\r\n\r\n    function random(uint sizeRange) public view returns (uint) {\r\n        uint randomHash = uint(keccak256(abi.encodePacked(block.difficulty, block.timestamp)));\r\n        return randomHash % sizeRange;\r\n    } \r\n\r\n    event OnDrawWinner(uint idDraw, address winnerAddress, uint sizePrizePool);\r\n\r\n    function drawWinner() public onlyOwner {\r\n        uint idWinner = random(_currentDrawParticipants.length);\r\n\r\n\r\n        address payable winner = payable(_currentDrawParticipants[idWinner]);\r\n        _drawWinners[idCurrentDraw] = _currentDrawParticipants[idWinner];\r\n\r\n        sendWinningsToAddress(winner);\r\n\r\n        emit OnDrawWinner(idCurrentDraw, winner, prizePool);\r\n\r\n        delete _currentDrawParticipants;\r\n        prizePool = 0;\r\n        idCurrentDraw++;\r\n\r\n    }\r\n\r\n    function getNbParticipants() public view returns (uint) {\r\n        return _currentDrawParticipants.length;\r\n        \r\n    }\r\n\r\n\r\n\r\n    function sendWinningsToAddress(address payable _to) private {\r\n        _to.transfer(prizePool - 1 ether);\r\n\r\n    }\r\n\r\n\r\n\r\n}",
  "sourcePath": "E:/William/Programming/Solidity/learning-solidity/contracts/MyLottery.sol",
  "compiler": {
    "name": "solc",
    "version": "0.8.0+commit.c7dfd78e.Emscripten.clang"
  },
  "schemaVersion": "3.3.4",
  "updatedAt": "2021-04-02T13:47:00.037Z",
  "networkType": "ethereum",
  "devdoc": {
    "kind": "dev",
    "methods": {},
    "version": 1
  },
  "userdoc": {
    "kind": "user",
    "methods": {},
    "version": 1
  }
}